101081000032 123456789 1804181330A094101Some Bank              Your Company Inc       #1234   5200Your Company IncAnyCompany          123456789 ACKTrans Desceeee  1804181231081000030000001622081000210081000210        0000000000ATrace         Your Company Inc2     S 0081000030000002820000000100081000210000000000000000000000000000000                            0810000300000015200Your Company IncTrans Description   123456789 WEBTrans Desc123   1804181233081000030000002629081000210081000210        0000001201081000210      John Smith            S 0081000030000004820000000100081000210000000012010000000000000000001                            0810000300000029000002000001000000020016200042000000001201000000000000                                       99999999999999999999999999999999999999999999999999999999999999999999999999999999999999999999999999999999999999999999999999999999999999999999999999999999999999999999999999999999999999999999